{
  "_format": "hh-sol-artifact-1",
  "contractName": "Tracking",
  "sourceName": "contracts/Tracking.sol",
  "abi": [
    {
      "anonymous": false,
      "inputs": [
        {
          "indexed": false,
          "internalType": "string",
          "name": "packageId",
          "type": "string"
        },
        {
          "indexed": true,
          "internalType": "address",
          "name": "sender",
          "type": "address"
        },
        {
          "indexed": true,
          "internalType": "address",
          "name": "receiver",
          "type": "address"
        },
        {
          "indexed": false,
          "internalType": "string",
          "name": "packageName",
          "type": "string"
        },
        {
          "indexed": false,
          "internalType": "uint256",
          "name": "distance",
          "type": "uint256"
        },
        {
          "indexed": false,
          "internalType": "uint256",
          "name": "price",
          "type": "uint256"
        }
      ],
      "name": "ShipmentCreated",
      "type": "event"
    },
    {
      "anonymous": false,
      "inputs": [
        {
          "indexed": false,
          "internalType": "string",
          "name": "packageId",
          "type": "string"
        },
        {
          "indexed": true,
          "internalType": "address",
          "name": "sender",
          "type": "address"
        },
        {
          "indexed": true,
          "internalType": "address",
          "name": "receiver",
          "type": "address"
        },
        {
          "indexed": false,
          "internalType": "uint256",
          "name": "deliveryTime",
          "type": "uint256"
        }
      ],
      "name": "ShipmentDelivered",
      "type": "event"
    },
    {
      "anonymous": false,
      "inputs": [
        {
          "indexed": false,
          "internalType": "string",
          "name": "packageId",
          "type": "string"
        },
        {
          "indexed": true,
          "internalType": "address",
          "name": "sender",
          "type": "address"
        },
        {
          "indexed": true,
          "internalType": "address",
          "name": "receiver",
          "type": "address"
        },
        {
          "indexed": false,
          "internalType": "uint256",
          "name": "pickupTime",
          "type": "uint256"
        }
      ],
      "name": "ShipmentInTransit",
      "type": "event"
    },
    {
      "anonymous": false,
      "inputs": [
        {
          "indexed": false,
          "internalType": "string",
          "name": "packageId",
          "type": "string"
        },
        {
          "indexed": true,
          "internalType": "address",
          "name": "sender",
          "type": "address"
        },
        {
          "indexed": true,
          "internalType": "address",
          "name": "receiver",
          "type": "address"
        },
        {
          "indexed": false,
          "internalType": "uint256",
          "name": "amount",
          "type": "uint256"
        }
      ],
      "name": "ShipmentPaid",
      "type": "event"
    },
    {
      "inputs": [
        {
          "internalType": "string",
          "name": "_packageId",
          "type": "string"
        }
      ],
      "name": "completeShipment",
      "outputs": [],
      "stateMutability": "nonpayable",
      "type": "function"
    },
    {
      "inputs": [
        {
          "internalType": "string",
          "name": "_packageId",
          "type": "string"
        },
        {
          "internalType": "address",
          "name": "_receiver",
          "type": "address"
        },
        {
          "internalType": "string",
          "name": "_packageName",
          "type": "string"
        },
        {
          "internalType": "uint256",
          "name": "_distance",
          "type": "uint256"
        },
        {
          "internalType": "uint256",
          "name": "_price",
          "type": "uint256"
        }
      ],
      "name": "createShipment",
      "outputs": [],
      "stateMutability": "payable",
      "type": "function"
    },
    {
      "inputs": [],
      "name": "getAllShipments",
      "outputs": [
        {
          "components": [
            {
              "internalType": "string",
              "name": "packageId",
              "type": "string"
            },
            {
              "internalType": "address",
              "name": "sender",
              "type": "address"
            },
            {
              "internalType": "address",
              "name": "receiver",
              "type": "address"
            },
            {
              "internalType": "string",
              "name": "packageName",
              "type": "string"
            },
            {
              "internalType": "uint256",
              "name": "pickupTime",
              "type": "uint256"
            },
            {
              "internalType": "uint256",
              "name": "deliveryTime",
              "type": "uint256"
            },
            {
              "internalType": "uint256",
              "name": "distance",
              "type": "uint256"
            },
            {
              "internalType": "uint256",
              "name": "price",
              "type": "uint256"
            },
            {
              "internalType": "enum Tracking.ShipmentStatus",
              "name": "status",
              "type": "uint8"
            },
            {
              "internalType": "bool",
              "name": "isPaid",
              "type": "bool"
            }
          ],
          "internalType": "struct Tracking.Shipment[]",
          "name": "",
          "type": "tuple[]"
        }
      ],
      "stateMutability": "view",
      "type": "function"
    },
    {
      "inputs": [
        {
          "internalType": "string",
          "name": "_packageId",
          "type": "string"
        }
      ],
      "name": "getShipment",
      "outputs": [
        {
          "components": [
            {
              "internalType": "string",
              "name": "packageId",
              "type": "string"
            },
            {
              "internalType": "address",
              "name": "sender",
              "type": "address"
            },
            {
              "internalType": "address",
              "name": "receiver",
              "type": "address"
            },
            {
              "internalType": "string",
              "name": "packageName",
              "type": "string"
            },
            {
              "internalType": "uint256",
              "name": "pickupTime",
              "type": "uint256"
            },
            {
              "internalType": "uint256",
              "name": "deliveryTime",
              "type": "uint256"
            },
            {
              "internalType": "uint256",
              "name": "distance",
              "type": "uint256"
            },
            {
              "internalType": "uint256",
              "name": "price",
              "type": "uint256"
            },
            {
              "internalType": "enum Tracking.ShipmentStatus",
              "name": "status",
              "type": "uint8"
            },
            {
              "internalType": "bool",
              "name": "isPaid",
              "type": "bool"
            }
          ],
          "internalType": "struct Tracking.Shipment",
          "name": "",
          "type": "tuple"
        }
      ],
      "stateMutability": "view",
      "type": "function"
    },
    {
      "inputs": [
        {
          "internalType": "address",
          "name": "_address",
          "type": "address"
        }
      ],
      "name": "getShipmentsByAddress",
      "outputs": [
        {
          "components": [
            {
              "internalType": "string",
              "name": "packageId",
              "type": "string"
            },
            {
              "internalType": "address",
              "name": "sender",
              "type": "address"
            },
            {
              "internalType": "address",
              "name": "receiver",
              "type": "address"
            },
            {
              "internalType": "string",
              "name": "packageName",
              "type": "string"
            },
            {
              "internalType": "uint256",
              "name": "pickupTime",
              "type": "uint256"
            },
            {
              "internalType": "uint256",
              "name": "deliveryTime",
              "type": "uint256"
            },
            {
              "internalType": "uint256",
              "name": "distance",
              "type": "uint256"
            },
            {
              "internalType": "uint256",
              "name": "price",
              "type": "uint256"
            },
            {
              "internalType": "enum Tracking.ShipmentStatus",
              "name": "status",
              "type": "uint8"
            },
            {
              "internalType": "bool",
              "name": "isPaid",
              "type": "bool"
            }
          ],
          "internalType": "struct Tracking.Shipment[]",
          "name": "",
          "type": "tuple[]"
        }
      ],
      "stateMutability": "view",
      "type": "function"
    },
    {
      "inputs": [
        {
          "internalType": "address",
          "name": "_sender",
          "type": "address"
        }
      ],
      "name": "getShipmentsCount",
      "outputs": [
        {
          "internalType": "uint256",
          "name": "",
          "type": "uint256"
        }
      ],
      "stateMutability": "view",
      "type": "function"
    },
    {
      "inputs": [
        {
          "internalType": "address",
          "name": "",
          "type": "address"
        }
      ],
      "name": "shipmentCounts",
      "outputs": [
        {
          "internalType": "uint256",
          "name": "",
          "type": "uint256"
        }
      ],
      "stateMutability": "view",
      "type": "function"
    },
    {
      "inputs": [
        {
          "internalType": "uint256",
          "name": "",
          "type": "uint256"
        }
      ],
      "name": "shipmentIds",
      "outputs": [
        {
          "internalType": "string",
          "name": "",
          "type": "string"
        }
      ],
      "stateMutability": "view",
      "type": "function"
    },
    {
      "inputs": [
        {
          "internalType": "string",
          "name": "",
          "type": "string"
        }
      ],
      "name": "shipments",
      "outputs": [
        {
          "internalType": "string",
          "name": "packageId",
          "type": "string"
        },
        {
          "internalType": "address",
          "name": "sender",
          "type": "address"
        },
        {
          "internalType": "address",
          "name": "receiver",
          "type": "address"
        },
        {
          "internalType": "string",
          "name": "packageName",
          "type": "string"
        },
        {
          "internalType": "uint256",
          "name": "pickupTime",
          "type": "uint256"
        },
        {
          "internalType": "uint256",
          "name": "deliveryTime",
          "type": "uint256"
        },
        {
          "internalType": "uint256",
          "name": "distance",
          "type": "uint256"
        },
        {
          "internalType": "uint256",
          "name": "price",
          "type": "uint256"
        },
        {
          "internalType": "enum Tracking.ShipmentStatus",
          "name": "status",
          "type": "uint8"
        },
        {
          "internalType": "bool",
          "name": "isPaid",
          "type": "bool"
        }
      ],
      "stateMutability": "view",
      "type": "function"
    },
    {
      "inputs": [
        {
          "internalType": "string",
          "name": "_packageId",
          "type": "string"
        }
      ],
      "name": "startShipment",
      "outputs": [],
      "stateMutability": "nonpayable",
      "type": "function"
    }
  ],
  "bytecode": "0x608060405234801561001057600080fd5b50612df5806100206000396000f3fe6080604052600436106100915760003560e01c806390b5968b1161005957806390b5968b146101aa578063adf362b0146101e7578063da34f3d514610210578063efea7e5d1461024d578063fced46e31461028a57610091565b80633eb9b9f8146100965780634069d06f146100d357806341fdc195146100fc578063494dad6c146101395780635ceaef5b14610164575b600080fd5b3480156100a257600080fd5b506100bd60048036038101906100b89190611c9b565b6102a6565b6040516100ca9190611d58565b60405180910390f35b3480156100df57600080fd5b506100fa60048036038101906100f59190611eaf565b610352565b005b34801561010857600080fd5b50610123600480360381019061011e9190611f56565b61078e565b6040516101309190611f92565b60405180910390f35b34801561014557600080fd5b5061014e6107d7565b60405161015b919061224a565b60405180910390f35b34801561017057600080fd5b5061018b60048036038101906101869190611eaf565b610b0e565b6040516101a19a99989796959493929190612299565b60405180910390f35b3480156101b657600080fd5b506101d160048036038101906101cc9190611f56565b610ce2565b6040516101de9190611f92565b60405180910390f35b3480156101f357600080fd5b5061020e60048036038101906102099190611eaf565b610cfa565b005b34801561021c57600080fd5b5061023760048036038101906102329190611eaf565b610fa5565b6040516102449190612424565b60405180910390f35b34801561025957600080fd5b50610274600480360381019061026f9190611f56565b61122c565b604051610281919061224a565b60405180910390f35b6102a4600480360381019061029f9190612446565b6117ec565b005b600281815481106102b657600080fd5b9060005260206000200160009150905080546102d190612528565b80601f01602080910402602001604051908101604052809291908181526020018280546102fd90612528565b801561034a5780601f1061031f5761010080835404028352916020019161034a565b820191906000526020600020905b81548152906001019060200180831161032d57829003601f168201915b505050505081565b600080826040516103639190612595565b90815260200160405180910390209050600073ffffffffffffffffffffffffffffffffffffffff168160010160009054906101000a900473ffffffffffffffffffffffffffffffffffffffff1673ffffffffffffffffffffffffffffffffffffffff1603610406576040517f08c379a00000000000000000000000000000000000000000000000000000000081526004016103fd906125f8565b60405180910390fd5b6001600281111561041a57610419612041565b5b8160080160009054906101000a900460ff16600281111561043e5761043d612041565b5b1461047e576040517f08c379a000000000000000000000000000000000000000000000000000000000815260040161047590612664565b60405180910390fd5b3373ffffffffffffffffffffffffffffffffffffffff168160020160009054906101000a900473ffffffffffffffffffffffffffffffffffffffff1673ffffffffffffffffffffffffffffffffffffffff1614610510576040517f08c379a0000000000000000000000000000000000000000000000000000000008152600401610507906126f6565b60405180910390fd5b8060080160019054906101000a900460ff1615610562576040517f08c379a000000000000000000000000000000000000000000000000000000000815260040161055990612762565b60405180910390fd5b60028160080160006101000a81548160ff0219169083600281111561058a57610589612041565b5b021790555042816005018190555060018160080160016101000a81548160ff0219169083151502179055508060010160009054906101000a900473ffffffffffffffffffffffffffffffffffffffff1673ffffffffffffffffffffffffffffffffffffffff166108fc82600701549081150290604051600060405180830381858888f19350505050158015610623573d6000803e3d6000fd5b508060020160009054906101000a900473ffffffffffffffffffffffffffffffffffffffff1673ffffffffffffffffffffffffffffffffffffffff168160010160009054906101000a900473ffffffffffffffffffffffffffffffffffffffff1673ffffffffffffffffffffffffffffffffffffffff167f3a6f3d02727565bb2ec9691dbbcd656101c72a55f582e4bd90edc758d0512d548484600501546040516106cf929190612782565b60405180910390a38060020160009054906101000a900473ffffffffffffffffffffffffffffffffffffffff1673ffffffffffffffffffffffffffffffffffffffff168160010160009054906101000a900473ffffffffffffffffffffffffffffffffffffffff1673ffffffffffffffffffffffffffffffffffffffff167fbbd968000e47487a5e8065945b615337fce24dc9fe45529a0e8cbc4374e2237c848460070154604051610782929190612782565b60405180910390a35050565b6000600160008373ffffffffffffffffffffffffffffffffffffffff1673ffffffffffffffffffffffffffffffffffffffff168152602001908152602001600020549050919050565b6060600060028054905067ffffffffffffffff8111156107fa576107f9611d84565b5b60405190808252806020026020018201604052801561083357816020015b610820611bbe565b8152602001906001900390816108185790505b50905060005b600280549050811015610b065760006002828154811061085c5761085b6127b2565b5b906000526020600020016040516108739190612879565b90815260200160405180910390206040518061014001604052908160008201805461089d90612528565b80601f01602080910402602001604051908101604052809291908181526020018280546108c990612528565b80156109165780601f106108eb57610100808354040283529160200191610916565b820191906000526020600020905b8154815290600101906020018083116108f957829003601f168201915b505050505081526020016001820160009054906101000a900473ffffffffffffffffffffffffffffffffffffffff1673ffffffffffffffffffffffffffffffffffffffff1673ffffffffffffffffffffffffffffffffffffffff1681526020016002820160009054906101000a900473ffffffffffffffffffffffffffffffffffffffff1673ffffffffffffffffffffffffffffffffffffffff1673ffffffffffffffffffffffffffffffffffffffff1681526020016003820180546109db90612528565b80601f0160208091040260200160405190810160405280929190818152602001828054610a0790612528565b8015610a545780601f10610a2957610100808354040283529160200191610a54565b820191906000526020600020905b815481529060010190602001808311610a3757829003601f168201915b50505050508152602001600482015481526020016005820154815260200160068201548152602001600782015481526020016008820160009054906101000a900460ff166002811115610aaa57610aa9612041565b5b6002811115610abc57610abb612041565b5b81526020016008820160019054906101000a900460ff161515151581525050828281518110610aee57610aed6127b2565b5b60200260200101819052508080600101915050610839565b508091505090565b600081805160208101820180518482526020830160208501208183528095505050505050600091509050806000018054610b4790612528565b80601f0160208091040260200160405190810160405280929190818152602001828054610b7390612528565b8015610bc05780601f10610b9557610100808354040283529160200191610bc0565b820191906000526020600020905b815481529060010190602001808311610ba357829003601f168201915b5050505050908060010160009054906101000a900473ffffffffffffffffffffffffffffffffffffffff16908060020160009054906101000a900473ffffffffffffffffffffffffffffffffffffffff1690806003018054610c2190612528565b80601f0160208091040260200160405190810160405280929190818152602001828054610c4d90612528565b8015610c9a5780601f10610c6f57610100808354040283529160200191610c9a565b820191906000526020600020905b815481529060010190602001808311610c7d57829003601f168201915b5050505050908060040154908060050154908060060154908060070154908060080160009054906101000a900460ff16908060080160019054906101000a900460ff1690508a565b60016020528060005260406000206000915090505481565b60008082604051610d0b9190612595565b90815260200160405180910390209050600073ffffffffffffffffffffffffffffffffffffffff168160010160009054906101000a900473ffffffffffffffffffffffffffffffffffffffff1673ffffffffffffffffffffffffffffffffffffffff1603610dae576040517f08c379a0000000000000000000000000000000000000000000000000000000008152600401610da5906125f8565b60405180910390fd5b60006002811115610dc257610dc1612041565b5b8160080160009054906101000a900460ff166002811115610de657610de5612041565b5b14610e26576040517f08c379a0000000000000000000000000000000000000000000000000000000008152600401610e1d906128dc565b60405180910390fd5b3373ffffffffffffffffffffffffffffffffffffffff168160010160009054906101000a900473ffffffffffffffffffffffffffffffffffffffff1673ffffffffffffffffffffffffffffffffffffffff1614610eb8576040517f08c379a0000000000000000000000000000000000000000000000000000000008152600401610eaf9061296e565b60405180910390fd5b60018160080160006101000a81548160ff02191690836002811115610ee057610edf612041565b5b02179055504281600401819055508060020160009054906101000a900473ffffffffffffffffffffffffffffffffffffffff1673ffffffffffffffffffffffffffffffffffffffff168160010160009054906101000a900473ffffffffffffffffffffffffffffffffffffffff1673ffffffffffffffffffffffffffffffffffffffff167f7ad58a39dc515df3917cb1e12178a7bff84c06929e61c8b62b1035ccf6b9238c848460040154604051610f99929190612782565b60405180910390a35050565b610fad611bbe565b600082604051610fbd9190612595565b908152602001604051809103902060405180610140016040529081600082018054610fe790612528565b80601f016020809104026020016040519081016040528092919081815260200182805461101390612528565b80156110605780601f1061103557610100808354040283529160200191611060565b820191906000526020600020905b81548152906001019060200180831161104357829003601f168201915b505050505081526020016001820160009054906101000a900473ffffffffffffffffffffffffffffffffffffffff1673ffffffffffffffffffffffffffffffffffffffff1673ffffffffffffffffffffffffffffffffffffffff1681526020016002820160009054906101000a900473ffffffffffffffffffffffffffffffffffffffff1673ffffffffffffffffffffffffffffffffffffffff1673ffffffffffffffffffffffffffffffffffffffff16815260200160038201805461112590612528565b80601f016020809104026020016040519081016040528092919081815260200182805461115190612528565b801561119e5780601f106111735761010080835404028352916020019161119e565b820191906000526020600020905b81548152906001019060200180831161118157829003601f168201915b50505050508152602001600482015481526020016005820154815260200160068201548152602001600782015481526020016008820160009054906101000a900460ff1660028111156111f4576111f3612041565b5b600281111561120657611205612041565b5b81526020016008820160019054906101000a900460ff1615151515815250509050919050565b60606000805b600280549050811015611381578373ffffffffffffffffffffffffffffffffffffffff1660006002838154811061126c5761126b6127b2565b5b906000526020600020016040516112839190612879565b908152602001604051809103902060010160009054906101000a900473ffffffffffffffffffffffffffffffffffffffff1673ffffffffffffffffffffffffffffffffffffffff16148061136057508373ffffffffffffffffffffffffffffffffffffffff166000600283815481106112ff576112fe6127b2565b5b906000526020600020016040516113169190612879565b908152602001604051809103902060020160009054906101000a900473ffffffffffffffffffffffffffffffffffffffff1673ffffffffffffffffffffffffffffffffffffffff16145b15611374578180611370906129bd565b9250505b8080600101915050611232565b5060008167ffffffffffffffff81111561139e5761139d611d84565b5b6040519080825280602002602001820160405280156113d757816020015b6113c4611bbe565b8152602001906001900390816113bc5790505b5090506000805b6002805490508110156117e0578573ffffffffffffffffffffffffffffffffffffffff16600060028381548110611418576114176127b2565b5b9060005260206000200160405161142f9190612879565b908152602001604051809103902060010160009054906101000a900473ffffffffffffffffffffffffffffffffffffffff1673ffffffffffffffffffffffffffffffffffffffff16148061150c57508573ffffffffffffffffffffffffffffffffffffffff166000600283815481106114ab576114aa6127b2565b5b906000526020600020016040516114c29190612879565b908152602001604051809103902060020160009054906101000a900473ffffffffffffffffffffffffffffffffffffffff1673ffffffffffffffffffffffffffffffffffffffff16145b156117d357600060028281548110611527576115266127b2565b5b9060005260206000200160405161153e9190612879565b90815260200160405180910390206040518061014001604052908160008201805461156890612528565b80601f016020809104026020016040519081016040528092919081815260200182805461159490612528565b80156115e15780601f106115b6576101008083540402835291602001916115e1565b820191906000526020600020905b8154815290600101906020018083116115c457829003601f168201915b505050505081526020016001820160009054906101000a900473ffffffffffffffffffffffffffffffffffffffff1673ffffffffffffffffffffffffffffffffffffffff1673ffffffffffffffffffffffffffffffffffffffff1681526020016002820160009054906101000a900473ffffffffffffffffffffffffffffffffffffffff1673ffffffffffffffffffffffffffffffffffffffff1673ffffffffffffffffffffffffffffffffffffffff1681526020016003820180546116a690612528565b80601f01602080910402602001604051908101604052809291908181526020018280546116d290612528565b801561171f5780601f106116f45761010080835404028352916020019161171f565b820191906000526020600020905b81548152906001019060200180831161170257829003601f168201915b50505050508152602001600482015481526020016005820154815260200160068201548152602001600782015481526020016008820160009054906101000a900460ff16600281111561177557611774612041565b5b600281111561178757611786612041565b5b81526020016008820160019054906101000a900460ff1615151515815250508383815181106117b9576117b86127b2565b5b602002602001018190525081806117cf906129bd565b9250505b80806001019150506113de565b50819350505050919050565b80341461182e576040517f08c379a000000000000000000000000000000000000000000000000000000000815260040161182590612a77565b60405180910390fd5b600073ffffffffffffffffffffffffffffffffffffffff166000866040516118569190612595565b908152602001604051809103902060010160009054906101000a900473ffffffffffffffffffffffffffffffffffffffff1673ffffffffffffffffffffffffffffffffffffffff16146118de576040517f08c379a00000000000000000000000000000000000000000000000000000000081526004016118d590612ae3565b60405180910390fd5b60006040518061014001604052808781526020013373ffffffffffffffffffffffffffffffffffffffff1681526020018673ffffffffffffffffffffffffffffffffffffffff168152602001858152602001428152602001600081526020018481526020018381526020016000600281111561195d5761195c612041565b5b81526020016000151581525090508060008760405161197c9190612595565b9081526020016040518091039020600082015181600001908161199f9190612c9a565b5060208201518160010160006101000a81548173ffffffffffffffffffffffffffffffffffffffff021916908373ffffffffffffffffffffffffffffffffffffffff16021790555060408201518160020160006101000a81548173ffffffffffffffffffffffffffffffffffffffff021916908373ffffffffffffffffffffffffffffffffffffffff1602179055506060820151816003019081611a439190612c9a565b506080820151816004015560a0820151816005015560c0820151816006015560e082015181600701556101008201518160080160006101000a81548160ff02191690836002811115611a9857611a97612041565b5b02179055506101208201518160080160016101000a81548160ff021916908315150217905550905050600160003373ffffffffffffffffffffffffffffffffffffffff1673ffffffffffffffffffffffffffffffffffffffff1681526020019081526020016000206000815480929190611b11906129bd565b9190505550600286908060018154018082558091505060019003906000526020600020016000909190919091509081611b4a9190612c9a565b508473ffffffffffffffffffffffffffffffffffffffff163373ffffffffffffffffffffffffffffffffffffffff167fabaa0432a94a653c0c93ff6fa8d24211e75ae93508cb3ac2d2e1f524b174917a88878787604051611bae9493929190612d6c565b60405180910390a3505050505050565b60405180610140016040528060608152602001600073ffffffffffffffffffffffffffffffffffffffff168152602001600073ffffffffffffffffffffffffffffffffffffffff168152602001606081526020016000815260200160008152602001600081526020016000815260200160006002811115611c4257611c41612041565b5b81526020016000151581525090565b6000604051905090565b600080fd5b600080fd5b6000819050919050565b611c7881611c65565b8114611c8357600080fd5b50565b600081359050611c9581611c6f565b92915050565b600060208284031215611cb157611cb0611c5b565b5b6000611cbf84828501611c86565b91505092915050565b600081519050919050565b600082825260208201905092915050565b60005b83811015611d02578082015181840152602081019050611ce7565b60008484015250505050565b6000601f19601f8301169050919050565b6000611d2a82611cc8565b611d348185611cd3565b9350611d44818560208601611ce4565b611d4d81611d0e565b840191505092915050565b60006020820190508181036000830152611d728184611d1f565b905092915050565b600080fd5b600080fd5b7f4e487b7100000000000000000000000000000000000000000000000000000000600052604160045260246000fd5b611dbc82611d0e565b810181811067ffffffffffffffff82111715611ddb57611dda611d84565b5b80604052505050565b6000611dee611c51565b9050611dfa8282611db3565b919050565b600067ffffffffffffffff821115611e1a57611e19611d84565b5b611e2382611d0e565b9050602081019050919050565b82818337600083830152505050565b6000611e52611e4d84611dff565b611de4565b905082815260208101848484011115611e6e57611e6d611d7f565b5b611e79848285611e30565b509392505050565b600082601f830112611e9657611e95611d7a565b5b8135611ea6848260208601611e3f565b91505092915050565b600060208284031215611ec557611ec4611c5b565b5b600082013567ffffffffffffffff811115611ee357611ee2611c60565b5b611eef84828501611e81565b91505092915050565b600073ffffffffffffffffffffffffffffffffffffffff82169050919050565b6000611f2382611ef8565b9050919050565b611f3381611f18565b8114611f3e57600080fd5b50565b600081359050611f5081611f2a565b92915050565b600060208284031215611f6c57611f6b611c5b565b5b6000611f7a84828501611f41565b91505092915050565b611f8c81611c65565b82525050565b6000602082019050611fa76000830184611f83565b92915050565b600081519050919050565b600082825260208201905092915050565b6000819050602082019050919050565b600082825260208201905092915050565b6000611ff582611cc8565b611fff8185611fd9565b935061200f818560208601611ce4565b61201881611d0e565b840191505092915050565b61202c81611f18565b82525050565b61203b81611c65565b82525050565b7f4e487b7100000000000000000000000000000000000000000000000000000000600052602160045260246000fd5b6003811061208157612080612041565b5b50565b600081905061209282612070565b919050565b60006120a282612084565b9050919050565b6120b281612097565b82525050565b60008115159050919050565b6120cd816120b8565b82525050565b60006101408301600083015184820360008601526120f18282611fea565b91505060208301516121066020860182612023565b5060408301516121196040860182612023565b50606083015184820360608601526121318282611fea565b91505060808301516121466080860182612032565b5060a083015161215960a0860182612032565b5060c083015161216c60c0860182612032565b5060e083015161217f60e0860182612032565b506101008301516121946101008601826120a9565b506101208301516121a96101208601826120c4565b508091505092915050565b60006121c083836120d3565b905092915050565b6000602082019050919050565b60006121e082611fad565b6121ea8185611fb8565b9350836020820285016121fc85611fc9565b8060005b85811015612238578484038952815161221985826121b4565b9450612224836121c8565b925060208a01995050600181019050612200565b50829750879550505050505092915050565b6000602082019050818103600083015261226481846121d5565b905092915050565b61227581611f18565b82525050565b61228481612097565b82525050565b612293816120b8565b82525050565b60006101408201905081810360008301526122b4818d611d1f565b90506122c3602083018c61226c565b6122d0604083018b61226c565b81810360608301526122e2818a611d1f565b90506122f16080830189611f83565b6122fe60a0830188611f83565b61230b60c0830187611f83565b61231860e0830186611f83565b61232661010083018561227b565b61233461012083018461228a565b9b9a5050505050505050505050565b60006101408301600083015184820360008601526123618282611fea565b91505060208301516123766020860182612023565b5060408301516123896040860182612023565b50606083015184820360608601526123a18282611fea565b91505060808301516123b66080860182612032565b5060a08301516123c960a0860182612032565b5060c08301516123dc60c0860182612032565b5060e08301516123ef60e0860182612032565b506101008301516124046101008601826120a9565b506101208301516124196101208601826120c4565b508091505092915050565b6000602082019050818103600083015261243e8184612343565b905092915050565b600080600080600060a0868803121561246257612461611c5b565b5b600086013567ffffffffffffffff8111156124805761247f611c60565b5b61248c88828901611e81565b955050602061249d88828901611f41565b945050604086013567ffffffffffffffff8111156124be576124bd611c60565b5b6124ca88828901611e81565b93505060606124db88828901611c86565b92505060806124ec88828901611c86565b9150509295509295909350565b7f4e487b7100000000000000000000000000000000000000000000000000000000600052602260045260246000fd5b6000600282049050600182168061254057607f821691505b602082108103612553576125526124f9565b5b50919050565b600081905092915050565b600061256f82611cc8565b6125798185612559565b9350612589818560208601611ce4565b80840191505092915050565b60006125a18284612564565b915081905092915050565b7f536869706d656e7420646f6573206e6f742065786973742e0000000000000000600082015250565b60006125e2601883611cd3565b91506125ed826125ac565b602082019050919050565b60006020820190508181036000830152612611816125d5565b9050919050565b7f536869706d656e74206e6f7420696e207472616e7369742e0000000000000000600082015250565b600061264e601883611cd3565b915061265982612618565b602082019050919050565b6000602082019050818103600083015261267d81612641565b9050919050565b7f4f6e6c79207468652072656365697665722063616e20636f6d706c657465207460008201527f686520736869706d656e742e0000000000000000000000000000000000000000602082015250565b60006126e0602c83611cd3565b91506126eb82612684565b604082019050919050565b6000602082019050818103600083015261270f816126d3565b9050919050565b7f536869706d656e7420616c726561647920706169642e00000000000000000000600082015250565b600061274c601683611cd3565b915061275782612716565b602082019050919050565b6000602082019050818103600083015261277b8161273f565b9050919050565b6000604082019050818103600083015261279c8185611d1f565b90506127ab6020830184611f83565b9392505050565b7f4e487b7100000000000000000000000000000000000000000000000000000000600052603260045260246000fd5b60008190508160005260206000209050919050565b6000815461280381612528565b61280d8186612559565b94506001821660008114612828576001811461283d57612870565b60ff1983168652811515820286019350612870565b612846856127e1565b60005b8381101561286857815481890152600182019150602081019050612849565b838801955050505b50505092915050565b600061288582846127f6565b915081905092915050565b7f536869706d656e7420616c726561647920696e207472616e7369742e00000000600082015250565b60006128c6601c83611cd3565b91506128d182612890565b602082019050919050565b600060208201905081810360008301526128f5816128b9565b9050919050565b7f4f6e6c79207468652073656e6465722063616e2073746172742074686520736860008201527f69706d656e742e00000000000000000000000000000000000000000000000000602082015250565b6000612958602783611cd3565b9150612963826128fc565b604082019050919050565b600060208201905081810360008301526129878161294b565b9050919050565b7f4e487b7100000000000000000000000000000000000000000000000000000000600052601160045260246000fd5b60006129c882611c65565b91507fffffffffffffffffffffffffffffffffffffffffffffffffffffffffffffffff82036129fa576129f961298e565b5b600182019050919050565b7f5061796d656e7420616d6f756e74206d757374206d617463682074686520707260008201527f6963652e00000000000000000000000000000000000000000000000000000000602082015250565b6000612a61602483611cd3565b9150612a6c82612a05565b604082019050919050565b60006020820190508181036000830152612a9081612a54565b9050919050565b7f536869706d656e7420494420616c7265616479206578697374732e0000000000600082015250565b6000612acd601b83611cd3565b9150612ad882612a97565b602082019050919050565b60006020820190508181036000830152612afc81612ac0565b9050919050565b60006020601f8301049050919050565b600082821b905092915050565b600060088302612b507fffffffffffffffffffffffffffffffffffffffffffffffffffffffffffffffff82612b13565b612b5a8683612b13565b95508019841693508086168417925050509392505050565b6000819050919050565b6000612b97612b92612b8d84611c65565b612b72565b611c65565b9050919050565b6000819050919050565b612bb183612b7c565b612bc5612bbd82612b9e565b848454612b20565b825550505050565b600090565b612bda612bcd565b612be5818484612ba8565b505050565b5b81811015612c0957612bfe600082612bd2565b600181019050612beb565b5050565b601f821115612c4e57612c1f816127e1565b612c2884612b03565b81016020851015612c37578190505b612c4b612c4385612b03565b830182612bea565b50505b505050565b600082821c905092915050565b6000612c7160001984600802612c53565b1980831691505092915050565b6000612c8a8383612c60565b9150826002028217905092915050565b612ca382611cc8565b67ffffffffffffffff811115612cbc57612cbb611d84565b5b612cc68254612528565b612cd1828285612c0d565b600060209050601f831160018114612d045760008415612cf2578287015190505b612cfc8582612c7e565b865550612d64565b601f198416612d12866127e1565b60005b82811015612d3a57848901518255600182019150602085019450602081019050612d15565b86831015612d575784890151612d53601f891682612c60565b8355505b6001600288020188555050505b505050505050565b60006080820190508181036000830152612d868187611d1f565b90508181036020830152612d9a8186611d1f565b9050612da96040830185611f83565b612db66060830184611f83565b9594505050505056fea2646970667358221220a9c91ab84dc5f0a9f602a5508b06d75f385cbe6461e89abc542d9e29f24e4c9064736f6c63430008180033",
  "linkReferences": {},
  "deployedLinkReferences": {}
}